:100000000C945D000C9485000C9485000C94850084
:100010000C9485000C9485000C9485000C9485004C
:100020000C9485000C9485000C9485000C9485003C
:100030000C9485000C9485000C9485000C9485002C
:100040000C94A3030C9485000C9471030C944B0343
:100050000C9485000C9485000C9485000C9485000C
:100060000C9485000C94850000000008000201003B
:100070000003040700000000000000000000000072
:10008000250028002B0000000000240027002A0083
:10009000040404040404040402020202020203032E
:1000A0000303030301020408102040800102040836
:1000B0001020010204081020020611241FBECFEFF9
:1000C000D8E0DEBFCDBF11E0A0E0B1E0ECE7FEE09C
:1000D00002C005900D92AC3CB107D9F722E0ACEC20
:1000E000B1E001C01D92A237B207E1F710E0CDE503
:1000F000D0E004C02197FE010E943607CC35D1071D
:10010000C9F70E94ED030C943C070C94000090E0AA
:10011000FC01EC55FF4F249180579F4FFC018491C7
:10012000882399F090E0880F991FFC01EA57FF4F50
:10013000A591B491FC01E458FF4F859194918FB73C
:10014000F894EC91E22BEC938FBF0895AF92BF929D
:10015000CF92DF92EF92FF920F931F93CF93DF9393
:100160006C017B018B01040F151FEB015E01AE18C2
:10017000BF08C017D10759F06991D601ED91FC91E4
:100180000190F081E02DC6010995892B79F7C50111
:10019000DF91CF911F910F91FF90EF90DF90CF9063
:1001A000BF90AF900895FC01538D448D252F30E012
:1001B000842F90E0821B930B541710F0CF96089574
:1001C00001970895FC01918D828D981761F0A28DA1
:1001D000AE0FBF2FB11D5D968C91928D9F5F9F7367
:1001E000928F90E008958FEF9FEF0895FC01918D1D
:1001F000828D981731F0828DE80FF11D858D90E08A
:1002000008958FEF9FEF0895FC01918D228D892F26
:1002100090E0805C9F4F821B91098F73992708950E
:1002200085ED91E00E94040121E0892B09F420E092
:10023000822F089580E090E0892B29F00E94100120
:1002400081110C9400000895FC01A48DA80FB92F12
:10025000B11DA35ABF4F2C91848D90E001968F73EE
:100260009927848FA689B7892C93A089B1898C910D
:10027000837080648C93938D848D981306C002885C
:10028000F389E02D80818F7D80830895EF92FF9226
:100290000F931F93CF93DF93EC0181E0888F9B8DA9
:1002A0008C8D98131AC0E889F989808185FF15C063
:1002B0009FB7F894EE89FF896083E889F989808186
:1002C0008370806480839FBF81E090E0DF91CF9155
:1002D0001F910F91FF90EF900895F62E0B8D10E077
:1002E0000F5F1F4F0F731127E02E8C8D8E110CC0E6
:1002F0000FB607FCFACFE889F989808185FFF5CF31
:10030000CE010E942401F1CFEB8DEC0FFD2FF11DEA
:10031000E35AFF4FF0829FB7F8940B8FEA89FB896D
:1003200080818062CFCFCF93DF93EC01888D8823CB
:10033000B9F0AA89BB89E889F9898C9185FD03C048
:10034000808186FD0DC00FB607FCF7CF8C9185FF2D
:10035000F2CF808185FFEDCFCE010E942401E9CF4D
:10036000DF91CF91089590E0FC01E859FF4F24916F
:10037000FC01EC55FF4F3491FC01E057FF4FE49135
:10038000EE23C9F0222339F0233001F1A8F4213003
:1003900019F1223029F1F0E0EE0FFF1FE458FF4F72
:1003A000A591B4918FB7F894EC91611126C0309566
:1003B0003E233C938FBF08952730A9F02830C9F021
:1003C000243049F7809180008F7D03C080918000A8
:1003D0008F7780938000DFCF84B58F7784BDDBCFAC
:1003E00084B58F7DFBCF8091B0008F778093B00074
:1003F000D2CF8091B0008F7DF9CF3E2BDACF1F9303
:10040000CF93DF93182FEB010E948700209739F4D8
:1004100060E0812FDF91CF911F910C94B301CF3F0A
:10042000D10511F461E0F5CFE12FF0E0E859FF4F7D
:10043000E491E33031F140F4E130B1F0E230E1F049
:10044000C038D1057CF7E4CFE73029F1E83059F125
:10045000E430B1F780918000806280938000D09377
:100460008B00C0938A0004C084B5806884BDC7BD7A
:10047000DF91CF911F91089584B5806284BDC8BD7E
:10048000F7CF80918000806880938000D0938900AE
:10049000C0938800EDCF8091B00080688093B00059
:1004A000C093B300E5CF8091B00080628093B0002C
:1004B000C093B400DDCF3FB7F8948091D101909103
:1004C000D201A091D301B091D40126B5A89B05C05B
:1004D0002F3F19F00196A11DB11D3FBFBA2FA92FC3
:1004E000982F8827BC01CD01620F711D811D911DC0
:1004F00042E0660F771F881F991F4A95D1F708952C
:100500008F929F92AF92BF92CF92DF92EF92FF9223
:100510006B017C010E945B024B015C01C114D104A0
:10052000E104F104B9F00E945B02681979098A09B3
:100530009B09683E73408105910580F321E0C21A52
:10054000D108E108F10888EE880E83E0981EA11C0E
:10055000B11CE4CFFF90EF90DF90CF90BF90AF90B1
:100560009F908F900895FC0101900020E9F731974A
:10057000AF01481B590BBC0185ED91E00C94A6001E
:10058000CF93DF930E94B302EC0186E191E00E94D9
:10059000B3028C0F9D1FDF91CF9108950C94B3028D
:1005A0008F929F92AF92BF92CF92DF92EF92FF9283
:1005B0000F931F93CF93DF93CDB7DEB7A1970FB6FD
:1005C000F894DEBF0FBECDBF6B017C01F7FE41C0CA
:1005D0006DE285ED91E00E9446018C0122273327D0
:1005E000A9012C193D094E095F0919A2CE01819676
:1005F0007C019AE0892E912CA12CB12CCA01B90161
:10060000A50194010E940507605DF70162937F01D7
:10061000211531054105510589F790E080E03097BB
:1006200019F0CF010E94B302800F911FA1960FB65F
:10063000F894DEBF0FBECDBFDF91CF911F910F9118
:10064000FF90EF90DF90CF90BF90AF909F908F90F2
:100650000895AC019B0119A28E010F5D1F4F8AE026
:10066000C82ED12CE12CF12CCA01B901A7019601A9
:100670000E940507605DF80162938F012115310525
:100680004105510589F790E080E0309779F2CF017C
:100690000E94B302CBCF1F920F920FB60F9211247C
:1006A0002F933F934F935F936F937F938F939F937A
:1006B000AF93BF93EF93FF9385ED91E00E942401E8
:1006C000FF91EF91BF91AF919F918F917F916F912A
:1006D0005F914F913F912F910F900FBE0F901F9000
:1006E00018951F920F920FB60F9211242F938F938C
:1006F0009F93EF93FF93E091E501F091E6018081F4
:10070000E091EB01F091EC0182FD1BC090818091A2
:10071000EE018F5F8F732091EF01821741F0E0911E
:10072000EE01F0E0EB52FE4F958F8093EE01FF91CA
:10073000EF919F918F912F910F900FBE0F901F906F
:1007400018958081F4CF1F920F920FB60F9211244B
:100750002F933F938F939F93AF93BF938091CD013E
:100760009091CE01A091CF01B091D0013091CC01F8
:1007700023E0230F2D3758F50196A11DB11D2093BD
:10078000CC018093CD019093CE01A093CF01B09383
:10079000D0018091D1019091D201A091D301B0916B
:1007A000D4010196A11DB11D8093D1019093D20176
:1007B000A093D301B093D401BF91AF919F918F913A
:1007C0003F912F910F900FBE0F901F90189526E824
:1007D000230F0296A11DB11DD2CF789484B58260FB
:1007E00084BD84B5816084BD85B5826085BD85B5D5
:1007F000816085BD80916E00816080936E00109253
:1008000081008091810082608093810080918100CD
:10081000816080938100809180008160809380005E
:100820008091B10084608093B1008091B0008160BC
:100830008093B00080917A00846080937A008091E8
:100840007A00826080937A0080917A008160809340
:100850007A0080917A00806880937A001092C100BB
:100860008AE00E94870089E00E94870088E00E9459
:10087000870085E00E94870087E00E94870086E06D
:100880000E948700E091E501F091E60182E080831B
:10089000E091E101F091E2011082E091E301F09139
:1008A000E40180E180831092ED01E091E901F09193
:1008B000EA0186E08083E091E701F091E801808120
:1008C00080618083E091E701F091E8018081886098
:1008D0008083E091E701F091E80180818068808366
:1008E000E091E701F091E80180818F7D808389E1CB
:1008F00091E00E94C0028DEFC82ED12CE12CF12C8A
:1009000000E010E08EE291E00E94CE0261E089E01A
:100910000E94B30160E088E00E94B30161E087E0DB
:100920000E94B30160E086E00E94B3010E947B0652
:10093000A70196010E94D3062B013C012FEF421A1A
:10094000520A620A720A0E947B06A70196010E945F
:10095000D3064B015C012FEF821A920AA20AB20A57
:10096000B2018AE00E94FF01B40185E00E94FF010C
:100970008DE391E00E94CE02C301B2010E94D00239
:1009800087E491E00E94CE02C501B4010E94D0022A
:1009900086E191E00E94B30268E873E180E090E0B4
:1009A0000E94800268E873E180E090E00E9480028B
:1009B00082E591E00E94C00260E089E00E94B301FC
:1009C00060E088E00E94B30160E088E00E94B3012B
:1009D00060E086E00E94B30170E060E08AE00E947F
:1009E000FF0170E060E085E00E94FF0168E873E1CC
:1009F00080E090E00E94800287E691E00E94CE02B3
:100A000061E088E00E94B30160E089E00E94B301E8
:100A100061E086E00E94B30160E087E00E94B301DC
:100A20000E947B06A70196010E94D3062B013C0180
:100A30002FEF421A520A620A720A0E947B06A7012D
:100A400096010E94D3064B015C012FEF821A920A95
:100A5000A20AB20AB2018AE00E94FF01B40185E055
:100A60000E94FF018DE391E00E94CE02C301B2011A
:100A70000E94D00287E491E00E94CE02C501B40139
:100A80000E94D00286E191E00E94B30268E873E11F
:100A900080E090E00E94800268E873E180E090E0EE
:100AA0000E94800285E791E00E94C00260E089E038
:100AB0000E94B30160E088E00E94B30160E088E03A
:100AC0000E94B30160E086E00E94B30161E070E043
:100AD0008AE00E94FF0161E070E085E00E94FF0172
:100AE00068E873E180E090E00E9480028BE891E08A
:100AF0000E94C00260E089E00E94B30161E088E0EA
:100B00000E94B30160E087E00E94B30161E086E0EB
:100B10000E94B301D0E0C0E0BE018AE00E94FF0164
:100B2000BE0185E00E94FF016CE271E080E090E090
:100B30000E9480022A96C43081E0D80769F7CFEF7F
:100B4000D0E0BE018AE00E94FF01BE0185E00E9464
:100B5000FF016CE271E080E090E00E9480022A9741
:100B6000CB3F2FEFD20769F768EE73E080E090E0AB
:100B70000E94800287EA91E00E94C00260E089E062
:100B80000E94B30161E088E00E94B30161E087E068
:100B90000E94B30160E086E00E94B301D0E0C0E0B3
:100BA000BE018AE00E94FF016CE271E080E090E00B
:100BB0000E9480022A96C43081E0D80789F7CFEFDF
:100BC000D0E0BE018AE00E94FF016CE271E080E0AB
:100BD00090E00E9480022A97CB3F2FEFD20789F73F
:100BE00068EE73E080E090E00E948002011511053C
:100BF00009F488CE0E941001882309F483CE0E9454
:100C0000000080CEE5EDF1E01382128288EE93E0E1
:100C1000A0E0B0E084839583A683B78388E091E069
:100C20009183808385EC90E09587848784EC90E0C5
:100C30009787868780EC90E0918B808B81EC90E0A9
:100C4000938B828B82EC90E0958B848B86EC90E08A
:100C5000978B868B118E128E138E148E08958F9221
:100C60009F92AF92BF92CF92DF92EF92FF92CF937B
:100C7000DF93EC01688179818A819B81611571051F
:100C80008105910521F464E279ED8BE597E02DE192
:100C900033EF41E050E00E94D30649015A019B0125
:100CA000AC01A7EAB1E40E94F2066B017C01ACEE54
:100CB000B4EFA50194010E940007C60ED71EE81EDE
:100CC000F91EF7FE06C081E0C81AD108E10880E8E5
:100CD000F80AC882D982EA82FB82C701B6019F77EF
:100CE000DF91CF91FF90EF90DF90CF90BF90AF90CA
:100CF0009F908F9008958F929F92AF92BF92CF92C4
:100D0000DF92EF92FF92609100017091010180915A
:100D1000020190910301611571058105910521F48E
:100D200064E279ED8BE597E02DE133EF41E050E0AF
:100D30000E94D30649015A019B01AC01A7EAB1E424
:100D40000E94F2066B017C01ACEEB4EFA5019401A8
:100D50000E940007C60ED71EE81EF91EF7FE06C049
:100D600081E0C81AD108E10880E8F80AC0920001C1
:100D7000D0920101E0920201F0920301C701B60195
:100D80009F77FF90EF90DF90CF90BF90AF909F90B4
:100D90008F90089560930001709301018093020188
:100DA000909303010895052E97FB1EF400940E9472
:100DB000EA0657FD07D00E94050707FC03D04EF452
:100DC0000C94EA0650954095309521953F4F4F4F32
:100DD0005F4F089590958095709561957F4F8F4FE7
:100DE0009F4F08950E942707A59F900DB49F900DD7
:100DF000A49F800D911D11240895B7FF0C94F20655
:100E00000E94F206821B930B0895A1E21A2EAA1BE0
:100E1000BB1BFD010DC0AA1FBB1FEE1FFF1FA217AA
:100E2000B307E407F50720F0A21BB30BE40BF50BA7
:100E3000661F771F881F991F1A9469F76095709530
:100E4000809590959B01AC01BD01CF010895A29FB3
:100E5000B001B39FC001A39F700D811D1124911D8E
:100E6000B29F700D811D1124911D0895EE0FFF1F7B
:0C0E70000590F491E02D0994F894FFCF58
:100E7C0001000000000000004601A600D300930111
:100E8C000401E200F6000D0A00556E6974205465E9
:100E9C007374696E67207374617274656400626F39
:100EAC007468206261636B776172642000537065B3
:100EBC0065642041203D002053706565642042200C
:100ECC003D0053544F5020454E41206E61642045E7
:100EDC004E42204C4F5700626F746820466F7277F9
:100EEC00617264200053544F5020454E41206E6176
:100EFC006420454E42204849474800626F74682080
:100F0C00666F7277617264206368616E67696E6781
:100F1C00207370656564006F6E6520666F72776113
:100F2C007264206368616E67696E67206368616EC6
:0C0F3C0067696E672073706565640000D3
:00000001FF
