:100000000C945D000C9485000C9485000C94850084
:100010000C9485000C9485000C9485000C9485004C
:100020000C9485000C9485000C9485000C9485003C
:100030000C9485000C9485000C9485000C9485002C
:100040000C945D030C9485000C94CD030C94A703D1
:100050000C9485000C9485000C9485000C9485000C
:100060000C9485000C94850000000008000201003B
:100070000003040700000000000000000000000072
:10008000250028002B0000000000240027002A0083
:10009000040404040404040402020202020203032E
:1000A0000303030301020408102040800102040836
:1000B0001020010204081020120611241FBECFEFE9
:1000C000D8E0DEBFCDBF11E0A0E0B1E0ECE9FEE09A
:1000D00002C005900D92A63FB107D9F722E0A6EF26
:1000E000B1E001C01D92AC39B207E1F710E0CDE5F7
:1000F000D0E004C02197FE010E944607CC35D1070D
:10010000C9F70E94FF030C944C070C94000090E088
:10011000FC01EC55FF4F249180579F4FFC018491C7
:10012000882399F090E0880F991FFC01EA57FF4F50
:10013000A591B491FC01E458FF4F859194918FB73C
:10014000F894EC91E22BEC938FBF089590E0FC01C2
:10015000E859FF4F2491FC01EC55FF4F3491FC010D
:10016000E057FF4FE491EE23C9F0222339F023300A
:1001700001F1A8F4213019F1223029F1F0E0EE0F5D
:10018000FF1FE458FF4FA591B4918FB7F894EC91FD
:10019000611126C030953E233C938FBF08952730D0
:1001A000A9F02830C9F0243049F7809180008F7D74
:1001B00003C0809180008F7780938000DFCF84B56B
:1001C0008F7784BDDBCF84B58F7DFBCF8091B0006E
:1001D0008F778093B000D2CF8091B0008F7DF9CF20
:1001E0003E2BDACF1F93CF93DF93182FEB010E94A2
:1001F0008700209739F460E0812FDF91CF911F9124
:100200000C94A600CF3FD10511F461E0F5CFE12FAA
:10021000F0E0E859FF4FE491E33031F140F4E13090
:10022000B1F0E230E1F0C038D1057CF7E4CFE7303F
:1002300029F1E83059F1E430B1F780918000806213
:1002400080938000D0938B00C0938A0004C084B553
:10025000806884BDC7BDDF91CF911F91089584B59B
:10026000806284BDC8BDF7CF809180008068809394
:100270008000D0938900C0938800EDCF8091B000BA
:1002800080688093B000C093B300E5CF8091B00048
:1002900080628093B000C093B400DDCF3FB7F89484
:1002A0008091FB019091FC01A091FD01B091FE01B4
:1002B00026B5A89B05C02F3F19F00196A11DB11DC1
:1002C0003FBFBA2FA92F982F8827BC01CD01620FFD
:1002D000711D811D911D42E0660F771F881F991FB8
:1002E0004A95D1F708958F929F92AF92BF92CF9285
:1002F000DF92EF92FF926B017C010E944E014B0155
:100300005C01C114D104E104F104B9F00E944E0172
:10031000681979098A099B09683E7340810591052E
:1003200080F321E0C21AD108E108F10888EE880EB6
:1003300083E0981EA11CB11CE4CFFF90EF90DF90EA
:10034000CF90BF90AF909F908F900895AF92BF9243
:10035000CF92DF92EF92FF920F931F93CF93DF9391
:100360006C017B018B01040F151FEB015E01AE18C0
:10037000BF08C017D10759F06991D601ED91FC91E2
:100380000190F081E02DC6010995892B79F7C5010F
:10039000DF91CF911F910F91FF90EF90DF90CF9061
:1003A000BF90AF900895FC01538D448D252F30E010
:1003B000842F90E0821B930B541710F0CF96089572
:1003C00001970895FC01918D828D981761F0A28D9F
:1003D000AE0FBF2FB11D5D968C91928D9F5F9F7365
:1003E000928F90E008958FEF9FEF0895FC01918D1B
:1003F000828D981731F0828DE80FF11D858D90E088
:1004000008958FEF9FEF0895FC01918D228D892F24
:1004100090E0805C9F4F821B91098F73992708950C
:100420008FEF91E00E94040221E0892B09F420E083
:10043000822F089580E090E0892B29F00E9410021D
:1004400081110C9400000895FC01A48DA80FB92F10
:10045000B11DA35ABF4F2C91848D90E001968F73EC
:100460009927848FA689B7892C93A089B1898C910B
:10047000837080648C93938D848D981306C002885A
:10048000F389E02D80818F7D80830895EF92FF9224
:100490000F931F93CF93DF93EC0181E0888F9B8DA7
:1004A0008C8D98131AC0E889F989808185FF15C061
:1004B0009FB7F894EE89FF896083E889F989808184
:1004C0008370806480839FBF81E090E0DF91CF9153
:1004D0001F910F91FF90EF900895F62E0B8D10E075
:1004E0000F5F1F4F0F731127E02E8C8D8E110CC0E4
:1004F0000FB607FCFACFE889F989808185FFF5CF2F
:10050000CE010E942402F1CFEB8DEC0FFD2FF11DE7
:10051000E35AFF4FF0829FB7F8940B8FEA89FB896B
:1005200080818062CFCFCF93DF93EC01888D8823C9
:10053000B9F0AA89BB89E889F9898C9185FD03C046
:10054000808186FD0DC00FB607FCF7CF8C9185FF2B
:10055000F2CF808185FFEDCFCE010E942402E9CF4A
:10056000DF91CF910895FC0101900020E9F73197C8
:10057000AF01481B590BBC018FEF91E00C94A60111
:10058000CF93DF930E94B302EC0186E191E00E94D9
:10059000B3028C0F9D1FDF91CF9108950C94B3028D
:1005A0008F929F92AF92BF92CF92DF92EF92FF9283
:1005B0000F931F93CF93DF93CDB7DEB7A1970FB6FD
:1005C000F894DEBF0FBECDBF6B017C01F7FE41C0CA
:1005D0006DE28FEF91E00E9446028C0122273327C3
:1005E000A9012C193D094E095F0919A2CE01819676
:1005F0007C019AE0892E912CA12CB12CCA01B90161
:10060000A50194010E941507605DF70162937F01C7
:10061000211531054105510589F790E080E03097BB
:1006200019F0CF010E94B302800F911FA1960FB65F
:10063000F894DEBF0FBECDBFDF91CF911F910F9118
:10064000FF90EF90DF90CF90BF90AF909F908F90F2
:100650000895AC019B0119A28E010F5D1F4F8AE026
:10066000C82ED12CE12CF12CCA01B901A7019601A9
:100670000E941507605DF80162938F012115310515
:100680004105510589F790E080E0309779F2CF017C
:100690000E94B302CBCFCF93DF93BC01990F880B9D
:1006A000990B0E94D002EC0186E191E00E94B30216
:1006B0008C0F9D1FDF91CF9108951F920F920FB65F
:1006C0000F9211242F933F938F939F93AF93BF93D8
:1006D0008091F7019091F801A091F901B091FA0190
:1006E0003091F60123E0230F2D3758F50196A11D17
:1006F000B11D2093F6018093F7019093F801A09328
:10070000F901B093FA018091FB019091FC01A09155
:10071000FD01B091FE010196A11DB11D8093FB0169
:100720009093FC01A093FD01B093FE01BF91AF91A6
:100730009F918F913F912F910F900FBE0F901F901F
:10074000189526E8230F0296A11DB11DD2CF1F9246
:100750000F920FB60F9211242F933F934F935F93F5
:100760006F937F938F939F93AF93BF93EF93FF9379
:100770008FEF91E00E942402FF91EF91BF91AF9122
:100780009F918F917F916F915F914F913F912F91A9
:100790000F900FBE0F901F9018951F920F920FB6DB
:1007A0000F9211242F938F939F93EF93FF93E091D8
:1007B0000F02F09110028081E0911502F091160273
:1007C00082FD1BC09081809118028F5F8F732091F2
:1007D0001902821741F0E0911802F0E0E150FE4F5B
:1007E000958F80931802FF91EF919F918F912F9198
:1007F0000F900FBE0F901F9018958081F4CF7894C2
:1008000084B5826084BD84B5816084BD85B5826015
:1008100085BD85B5816085BD80916E0081608093C6
:100820006E0010928100809181008260809381002F
:10083000809181008160809381008091800081603F
:10084000809380008091B10084608093B10080919A
:10085000B00081608093B00080917A0084608093C2
:100860007A0080917A00826080937A0080917A0089
:10087000816080937A0080917A00806880937A000A
:100880001092C1008AE00E94870089E00E948700E0
:1008900088E00E94870085E00E94870087E00E9430
:1008A000870086E00E948700E0910F02F09110021D
:1008B00082E08083E0910B02F0910C021082E091C3
:1008C0000D02F0910E0280E1808310921702E091F8
:1008D0001302F091140286E08083E0911102F091FE
:1008E0001202808180618083E0911102F0911202F6
:1008F000808188608083E0911102F09112028081F2
:1009000080688083E0911102F091120280818F7DD6
:10091000808389E191E00E94C0028DEFC82ED12C26
:10092000E12CF12C00E010E080E591E00E94C00293
:1009300060E089E00E94A60061E088E00E94A600D5
:1009400060E087E00E94A60061E086E00E94A600C9
:10095000D0E0C0E0BE018AE00E94F200BE0185E066
:100960000E94F2006CE271E080E090E00E9473016E
:100970008CE691E00E94CE02CE010E944B032A96A3
:10098000C43021E0D20731F7CFEFD0E0BE018AE0DA
:100990000E94F200BE0185E00E94F2006CE271E06C
:1009A00080E090E00E9473018CE691E00E94CE020C
:1009B000CE010E944B032A97CB3F8FEFD80731F728
:1009C00084E791E00E94CE0261E089E00E94A600E7
:1009D00060E088E00E94A60061E087E00E94A60037
:1009E00060E086E00E94A6000E948B06A7019601A7
:1009F0000E94E3062B013C012FEF421A520A620AC1
:100A0000720A0E948B06A70196010E94E3064B0121
:100A10005C012FEF821A920AA20AB20AB2018AE09E
:100A20000E94F200B40185E00E94F20083E891E0A8
:100A30000E94CE02C301B2010E94D0028DE891E073
:100A40000E94CE02C4010E944B0368E873E180E07B
:100A500090E00E94730168E873E180E090E00E94FA
:100A6000730188E991E00E94C00260E089E00E9481
:100A7000A60060E088E00E94A60060E088E00E9496
:100A8000A60060E086E00E94A60070E060E08AE0D8
:100A90000E94F20070E060E085E00E94F20068E8E9
:100AA00073E180E090E00E9473018DEA91E00E9482
:100AB000CE0261E088E00E94A60060E089E00E942A
:100AC000A60061E086E00E94A60060E087E00E9448
:100AD000A6000E948B06A70196010E94E3062B0147
:100AE0003C012FEF421A520A620A720A0E948B06D8
:100AF000A70196010E94E3064B015C012FEF821AC9
:100B0000920AA20AB20AB2018AE00E94F200B4017B
:100B100085E00E94F20083E891E00E94CE02C301CA
:100B2000B2010E94D0028DE891E00E94CE02C40181
:100B30000E944B0368E873E180E090E00E9473013B
:100B400068E873E180E090E00E9473018BEB91E034
:100B50000E94C00260E089E00E94A60060E088E098
:100B60000E94A60060E088E00E94A60060E086E0A7
:100B70000E94A60061E070E08AE00E94F20061E05D
:100B800070E085E00E94F20068E873E180E090E0A8
:100B90000E94730181ED91E00E94C00260E089E053
:100BA0000E94A60061E088E00E94A60061E087E064
:100BB0000E94A60060E086E00E94A600D0E0C0E0AF
:100BC000BE018AE00E94F2006CE271E080E090E0F9
:100BD0000E9473012A96C43081E0D80789F7CFEFCD
:100BE000D0E0BE018AE00E94F2006CE271E080E099
:100BF00090E00E9473012A97CB3F2FEFD20789F72D
:100C000068EE73E080E090E00E9473010115110529
:100C100009F48ACE0E941002882309F485CE0E942E
:100C2000000082CEEFEFF1E01382128288EE93E0B3
:100C3000A0E0B0E084839583A683B78388E091E049
:100C40009183808385EC90E09587848784EC90E0A5
:100C50009787868780EC90E0918B808B81EC90E089
:100C6000938B828B82EC90E0958B848B86EC90E06A
:100C7000978B868B118E128E138E148E08958F9201
:100C80009F92AF92BF92CF92DF92EF92FF92CF935B
:100C9000DF93EC01688179818A819B8161157105FF
:100CA0008105910521F464E279ED8BE597E02DE172
:100CB00033EF41E050E00E94E30649015A019B01F5
:100CC000AC01A7EAB1E40E9402076B017C01ACEE23
:100CD000B4EFA50194010E941007C60ED71EE81EAE
:100CE000F91EF7FE06C081E0C81AD108E10880E8C5
:100CF000F80AC882D982EA82FB82C701B6019F77CF
:100D0000DF91CF91FF90EF90DF90CF90BF90AF90A9
:100D10009F908F9008958F929F92AF92BF92CF92A3
:100D2000DF92EF92FF92609100017091010180913A
:100D3000020190910301611571058105910521F46E
:100D400064E279ED8BE597E02DE133EF41E050E08F
:100D50000E94E30649015A019B01AC01A7EAB1E4F4
:100D60000E9402076B017C01ACEEB4EFA501940177
:100D70000E941007C60ED71EE81EF91EF7FE06C019
:100D800081E0C81AD108E10880E8F80AC0920001A1
:100D9000D0920101E0920201F0920301C701B60175
:100DA0009F77FF90EF90DF90CF90BF90AF909F9094
:100DB0008F90089560930001709301018093020168
:100DC000909303010895052E97FB1EF400940E9452
:100DD000FA0657FD07D00E94150707FC03D04EF412
:100DE0000C94FA0650954095309521953F4F4F4F02
:100DF0005F4F089590958095709561957F4F8F4FC7
:100E00009F4F08950E943707A59F900DB49F900DA6
:100E1000A49F800D911D11240895B7FF0C94020723
:100E20000E940207821B930B0895A1E21A2EAA1BAF
:100E3000BB1BFD010DC0AA1FBB1FEE1FFF1FA2178A
:100E4000B307E407F50720F0A21BB30BE40BF50B87
:100E5000661F771F881F991F1A9469F76095709510
:100E6000809590959B01AC01BD01CF010895A29F93
:100E7000B001B39FC001A39F700D811D1124911D6E
:100E8000B29F700D811D1124911D0895EE0FFF1F5B
:0C0E90000590F491E02D0994F894FFCF38
:100E9C0001000000000000004602A601D3019302ED
:100EAC000402E201F6010D0A00556E6974205465C6
:100EBC007374696E672073746172746564202D2D70
:100ECC00206368616E67656420696E6F757473204A
:100EDC00616E642063686970206368616E67650089
:100EEC00626F746820666F727761726420636861E8
:100EFC006E67696E6720737065656400207370653A
:100F0C0065642000626F7468206261636B77617244
:100F1C0064200053706565642041203D00205370AF
:100F2C006565642042203D0053544F5020454E418E
:100F3C00206E616420454E42204C4F5700626F7406
:100F4C006820466F7277617264200053544F5020B2
:100F5C00454E41206E616420454E42204849474829
:100F6C00006F6E6520666F727761726420636861D2
:100F7C006E67696E67206368616E67696E67207360
:060F8C00706565640000C1
:00000001FF
